:100000000C9462000C948A000C948A000C948A0070
:100010000C948A000C948A000C948A000C948A0038
:100020000C948A000C948A000C948A000C948A0028
:100030000C948A000C948A000C948A000C948A0018
:100040000C94F50B0C948A000C94C30B0C949D0B30
:100050000C948A000C948A000C948A000C948A00F8
:100060000C943F0C0C948A00000000002300260032
:10007000290000000000250028002B0000000008D7
:10008000000201000003040700000000000000005F
:1000900000000000240027002A00010204081020AC
:1000A000408001020408102001020408102004040A
:1000B0000404040404040202020202020303030310
:1000C00003035E0D11241FBECFEFD8E0DEBFCDBF0E
:1000D00013E0A0E0B1E0E4E3FEE202C005900D927F
:1000E000A63DB107D9F725E0A6EDB3E001C01D920A
:1000F000A33EB207E1F710E0C2E6D0E004C02197CA
:10010000FE010E94DE15C136D107C9F70E94710EAB
:100110000C9418170C940000FC01DB0112968C91D2
:100120001297828313968D919C9114979483838365
:1001300015964D915D916D917C91189745835683ED
:100140006783708719964D915D916D917C911C9795
:1001500041875287638774871D968D919D910D907D
:10016000BC91A02D85879687A787B08BCF01089576
:100170008CBD9DBD089591E09093A7048093A60443
:100180001092A5041092A40408959091A3049111D3
:10019000FCCF91E09093A3049093A2042FEF2093BF
:1001A000A1041092A004260F20939F0490939E0414
:1001B00090919E04880F892B80939E0480919D04CA
:1001C0008130F9F410929D0480919E048093BB00CD
:1001D0008091BC0083FDF8CF85EC8093BC008091BA
:1001E000A3048130E1F38091A004861710F460919C
:1001F000A004ADE7B4E0EDE5F4E080E0861303C0D1
:10020000089585EEEACF9D9191938F5FF7CF089582
:10021000089580915B0490915C04891B990B08956B
:10022000AF92BF92CF92DF92EF92FF920F931F9304
:10023000CF93DF936C017B018B01040F151FEB0142
:100240005E01AE18BF08C017D10759F06991D601F9
:10025000ED91FC910190F081E02DC6010995892B6B
:1002600079F7C501DF91CF911F910F91FF90EF902A
:10027000DF90CF90BF90AF900895FC01538D448DD7
:10028000252F30E0842F90E0821B930B541710F041
:10029000CF96089501970895FC01918D828D98174E
:1002A00061F0A28DAE0FBF2FB11D5D968C91928D26
:1002B0009F5F9F73928F90E008958FEF9FEF089557
:1002C000FC01918D828D981731F0828DE80FF11D20
:1002D000858D90E008958FEF9FEF0895FC01918D3B
:1002E000228D892F90E0805C9F4F821B91098F7334
:1002F0009927089588EA94E00E946E0121E0892BF5
:1003000009F420E0822F089580E090E0892B29F005
:100310000E947A0181110C9400000895FC01A48DC3
:10032000A80FB92FB11DA35ABF4F2C91848D90E017
:1003300001968F739927848FA689B7892C93A089FA
:10034000B1898C91837080648C93938D848D981384
:1003500006C00288F389E02D80818F7D8083089517
:10036000EF92FF920F931F93CF93DF93EC0181E005
:10037000888F9B8D8C8D98131AC0E889F9898081AC
:1003800085FF15C09FB7F894EE89FF896083E889DF
:10039000F98980818370806480839FBF81E090E0D1
:1003A000DF91CF911F910F91FF90EF900895F62E5E
:1003B0000B8D10E00F5F1F4F0F731127E02E8C8DF8
:1003C0008E110CC00FB607FCFACFE889F98980813D
:1003D00085FFF5CFCE010E948E01F1CFEB8DEC0FA2
:1003E000FD2FF11DE35AFF4FF0829FB7F8940B8F5A
:1003F000EA89FB8980818062CFCFCF93DF93EC01C4
:10040000888D8823B9F0AA89BB89E889F9898C91FC
:1004100085FD03C0808186FD0DC00FB607FCF7CFB8
:100420008C9185FFF2CF808185FFEDCFCE010E94B8
:100430008E01E9CFDF91CF910895833081F028F4C8
:10044000813099F08230A9F008958730A9F0883082
:10045000C9F08430B1F4809180008F7D03C0809119
:1004600080008F7780938000089584B58F7784BD56
:10047000089584B58F7DFBCF8091B0008F778093F6
:10048000B00008958091B0008F7DF9CF1F93CF9376
:10049000DF93282F30E0F901E458FF4F8491F901F0
:1004A000E656FF4FD491F901E255FF4FC491CC239A
:1004B000A9F0162F81110E941D02EC2FF0E0EE0F23
:1004C000FF1FEE58FF4FA591B4918FB7F894EC91B0
:1004D000111108C0D095DE23DC938FBFDF91CF913F
:1004E0001F910895DE2BF8CF10925C0410925B04EC
:1004F0001092A5041092A4041092A30481E08093AA
:10050000A20410929D0461E082E10E94460261E033
:1005100083E10E944602E9EBF0E080818E7F8083D8
:1005200080818D7F808388E48093B80085E4809308
:10053000BC0087E091E090935A048093590488E0CE
:1005400091E090935804809357040895CF93DF93DC
:1005500090E0FC01E656FF4F249182559F4FFC012D
:1005600084918823D1F090E0880F991FFC01E05717
:10057000FF4FA591B491FC01EE58FF4FC591D49166
:1005800061110EC09FB7F8948C91E22FE0958E23F5
:100590008C932881E223E8839FBFDF91CF91089558
:1005A0008FB7F894EC91E22BEC938FBFF6CF3FB767
:1005B000F89480913A0490913B04A0913C04B0914E
:1005C0003D0426B5A89B05C02F3F19F00196A11D3B
:1005D000B11D3FBFBA2FA92F982F8827BC01CD018D
:1005E000620F711D811D911D42E0660F771F881FEC
:1005F000991F4A95D1F708958F929F92AF92BF921B
:10060000CF92DF92EF92FF924B015C010E94D702E2
:100610006B017C010E94D7026C197D098E099F092C
:10062000683E734081059105A8F321E0821A910884
:10063000A108B10888EEC80E83E0D81EE11CF11CA9
:1006400081149104A104B10429F7FF90EF90DF9089
:10065000CF90BF90AF909F908F9008950895AF92E4
:10066000BF92CF92DF92EF92FF920F931F93CF939F
:10067000DF93FC0125A52F3F91F46EBD00000DB462
:1006800007FEFDCFDEB48D2DDF91CF911F910F912D
:10069000FF90EF90DF90CF90BF90AF900895B62E6F
:1006A000EC01D12C07E010E0EE24E394F12CDD0CFA
:1006B00060E08DA50E944602B701002E01C0660FC2
:1006C0000A94EAF76B218BA50E94460261E08DA592
:1006D0000E9446022CA530E0F901E458FF4F8491B6
:1006E000F901E656FF4FC490F901E255FF4FA4907F
:1006F000AA2081F081110E941D02EA2DF0E0EE0F88
:10070000FF1FE859FF4FA591B491EC91CE2211F053
:100710006894D0F80150110908F0C9CFB4CFFC019A
:1007200027853089C90195958795A381B481A80F44
:10073000B91F0584F685E02D20FF08C08D919C919E
:100740001197E80FF91F0190F081E02DCD01099478
:100750000F931F93CF93DF93EC018B012F8138858B
:10076000A901559547958B819C81840F951FED813B
:10077000FE8120FF08C0DC012D913C91E20FF31FA8
:100780000190F081E02D09952B853C85C901959557
:1007900087954B815C81840F951FE985FA8520FF41
:1007A00008C0DC012D913C91E20FF31F0190F08114
:1007B000E02D6FB7F89420913F04309140044091B0
:1007C0004104509142046FBFB8010995DF91CF9168
:1007D0001F910F9108950895089585ED8093BC00B1
:1007E0008091BC0084FDFCCF1092A3040895209159
:1007F0001604260F3327331F21323105ECF42091E4
:10080000A304FC0190E080E0243069F082E00895C8
:10081000A09116042191AC014A505C4FA40FB52F52
:10082000B11D2C930196861798F380911604680FDA
:100830006093160480E0089581E008950895E091A2
:100840005C0480915B04E81730F4F0E0E35AFB4F5E
:10085000808190E008958FEF9FEF089590915C0460
:1008600080915B042FEF3FEF981748F4E92FF0E0F9
:10087000E35AFB4F208130E09F5F90935C04C901F5
:100880000895CF92DF92EF92FF920F931F93CF9331
:10089000DF937C01CB018A012091A704222389F0F8
:1008A000EB016B01C40ED51ECC15DD0569F0699115
:1008B000D701ED91FC910190F081E02DC7010995E0
:1008C000F3CF642F0E94F703C801DF91CF911F91EE
:1008D0000F91FF90EF90DF90CF900895CF93DF932B
:1008E0001F92CDB7DEB769832091A7042223F9F0C8
:1008F0002091A404203258F021E030E0FC01338341
:10090000228390E080E00F90DF91CF910895809155
:10091000A504E82FF0E0EA52FC4F998190838F5FA5
:100920008093A5048093A40481E090E0ECCF61E083
:10093000CE0101960E94F703F7CF682F85E495E07A
:100940000C946E042091A40481E0213208F044C08C
:100950008091A3048111FCCF8091A60492E0909332
:10096000A30491E09093A2049FEF9093A1041092AE
:10097000A00420939F04A6EDB3E0EDE7F4E090E03F
:10098000291331C010929E0490919E04880F892BE8
:1009900080939E0480919D04813049F510929D04BE
:1009A00080919E048093BB008091BC0083FDF8CFB2
:1009B00085EC8093BC008091A3048230E1F38091A8
:1009C000A1048F3FB1F08091A1048032A1F0809109
:1009D000A104803391F084E01092A5041092A40445
:1009E0001092A70408953D9131939F5FC9CF85EE82
:1009F000E0CF80E0F1CF82E0EFCF83E0EDCF1F9337
:100A0000CF93DF93162FD42F882351F1C0917A050D
:100A10008EE190917705992339F10E94BB00809176
:100A2000780590917905DC01ED91FC910190F081C0
:100A3000E02D612F09958091780590917905DC0171
:100A4000ED91FC910190F081E02D6D2F0995809141
:100A5000780590917905DF91CF911F910C94A204B4
:100A6000C0917B058BE6D5CF60E08C2F0E944602BB
:100A700080917E058F3F21F48DE591E00E94B800C2
:100A8000612F81E595E00E942F036D2F81E595E0B0
:100A90000E942F0361E08C2FDF91CF911F910C9466
:100AA000460290E080E008950F931F93CF93DF9369
:100AB0008C01EB01FB01349680E2DF011D928A95E7
:100AC000E9F784E290E0A0E0B0E088839983AA830C
:100AD000BB83F80182AD93ADA4ADB5AD8C839D838E
:100AE000AE83BF8381E090E0A0E0B0E08887998783
:100AF000AA87BB87288B398B4A8B5B8B26A537A5AA
:100B000040A951A960817181828193810E944A1517
:100B100020E030E04AE754E40E94F2132AE038EE85
:100B20004CE151E40E944A156C8B7D8B8E8B9F8B20
:100B3000D8019E962D913D914D915C91D19714963F
:100B40006D917D918D919C9117970E944A1520E09F
:100B500030E04AE754E40E94F2132AE038EE4CE118
:100B600051E40E944A15688F798F8A8F9B8FF80114
:100B700026A537A540A951A96085718582859385F1
:100B80000E944A1520E030E04AE754E40E94F21344
:100B90002AE038EE4CE151E40E944A156C8F7D8FBB
:100BA0008E8F9F8FDF91CF911F910F9108950F939B
:100BB0001F93CF93DF938C01EB01FB01349680E20E
:100BC000DF011D928A95E9F784E290E0A0E0B0E0B1
:100BD00088839983AA83BB83F801FE9680819181E3
:100BE000A281B3818C839D83AE83BF8382E090E03A
:100BF000A0E0B0E088879987AA87BB87288B398BCC
:100C00004A8B5B8BF80122A933A944A955A96485B5
:100C10007585868597850E944A1520E030E04AE771
:100C200054E40E94F2136C8B7D8B8E8B9F8BD801CA
:100C3000D2962D913D914D915C91D59750966D91A5
:100C40007D918D919C9153970E944A1520E030E050
:100C50004AE754E40E94F213688F798F8A8F9B8F42
:100C6000F80122A933A944A955A9648975898689FF
:100C700097890E944A1520E030E04AE754E40E9438
:100C8000F2136C8F7D8F8E8F9F8FDF91CF911F918D
:100C90000F9108950F931F93CF93DF938C01EB0176
:100CA000FB01349680E2DF011D928A95E9F784E228
:100CB00090E0A0E0B0E088839983AA83BB83F80129
:100CC00082AD93ADA4ADB5AD8C839D83AE83BF8360
:100CD00084E090E0A0E0B0E088879987AA87BB878E
:100CE000288B398B4A8B5B8B26A937A940AD51AD38
:100CF000608D718D828D938D0E944A156C8B7D8BDA
:100D00008E8B9F8BD801D6962D913D914D915C9104
:100D1000D9975C966D917D918D919C915F970E9482
:100D20004A15688F798F8A8F9B8FF80126A937A97A
:100D300040AD51AD60A171A182A193A10E944A155D
:100D40006C8F7D8F8E8F9F8FDF91CF911F910F9131
:100D50000895CF92DF92EF92FF92CF93DF93EB0152
:100D6000FB01349660E2DF011D926A95E9F764E2C7
:100D7000C62ED12CE12CF12CC882D982EA82FB82CA
:100D8000FC01EA5BFF4FC080D180E280F380CC821F
:100D9000DD82EE82FF827DE0C72ED12CE12CF12C8A
:100DA000C886D986EA86FB86288B398B4A8B5B8B73
:100DB000FC0164A175A1072E000C880B990B0E9401
:100DC000951420E030E040E05EE30E944A1520E008
:100DD00030E048EA51E40E9481136C8B7D8B8E8B4E
:100DE0009F8BDF91CF91FF90EF90DF90CF90089590
:100DF0000F931F93CF93DF938C01EB0188E2FB01EC
:100E000011928A95E9F74BE050E068E371E0CE017A
:100E10000E9409171B8681E090E0A0E0B0E08C877B
:100E20009D87AE87BF87F80142AD53AD64AD75AD08
:100E3000488B598B6A8B7B8B8C8B9D8BAE8BBF8B3E
:100E40001CA21DA21EA21FA2188E198E1A8E1B8E06
:100E50001C8E1D8E1E8E1F8E18A219A21AA21BA2F6
:100E6000DF91CF911F910F9108950F931F93CF930F
:100E7000DF938C01EB0188E2FB0111928A95E9F77F
:100E80004BE050E062E471E0CE010E9409171B863E
:100E900081E090E0A0E0B0E08C879D87AE87BF87BF
:100EA000F801FE9680819181A281B381888B998B14
:100EB000AA8BBB8B82E090E0A0E0B0E08C8B9D8B96
:100EC000AE8BBF8B1CA21DA21EA21FA2188E198E54
:100ED0001A8E1B8E1C8E1D8E1E8E1F8E18A219A29E
:100EE0001AA21BA2DF91CF911F910F9108950F932A
:100EF0001F93CF93DF938C01EB0188E2FB011192EA
:100F00008A95E9F74BE050E06CE471E0CE010E9475
:100F100009171B8681E090E0A0E0B0E08C879D87F8
:100F2000AE87BF87F801EE5BFF4F80819181A28180
:100F3000B381888B998BAA8BBB8B84E090E0A0E077
:100F4000B0E08C8B9D8BAE8BBF8B1CA21DA21EA212
:100F50001FA2188E198E1A8E1B8E1C8E1D8E1E8E31
:100F60001F8E18A219A21AA21BA2DF91CF911F9166
:100F70000F9108950F931F93CF93DF938C01EB0193
:100F800088E2FB0111928A95E9F74BE050E066E5B3
:100F900071E0CE010E9409171B8681E090E0A0E07D
:100FA000B0E08C879D87AE87BF87F801EA5BFF4F73
:100FB00080819181A281B381888B998BAA8BBB8B15
:100FC0008DE090E0A0E0B0E08C8B9D8BAE8BBF8B72
:100FD0001CA21DA21EA21FA2188E198E1A8E1B8E75
:100FE0001C8E1D8E1E8E1F8E18A219A21AA21BA265
:100FF000DF91CF911F910F910895BF92CF92DF9211
:10100000EF92FF920F931F93CF93DF93EC01C62EC5
:10101000E42EF22E662309F43EC0B9A49EE1D92E37
:101020008EA18823E1F18D2D0E94BB008FA198A590
:10103000DC01ED91FC910190F081E02D6E2D099580
:101040008FA198A50E94A2046F2D8D2D0E94C5002E
:1010500010925C0480935B04F81251C0E02E68018A
:101060008FA198A5DC01ED91FC910284F385E02D20
:101070000995F60181936F018E2F8E198F1580F3DC
:101080008F2DDF91CF911F910F91FF90EF90DF9007
:10109000CF90BF900895BAA48BE6D82EC1CF8DA56E
:1010A0008F3F49F58DE591E00E94B80060E08B2DFF
:1010B0000E944602CC2011F06894E6F86E2D60681C
:1010C000CE010E942F03E02E680160E0CE010E9455
:1010D0002F03D6018D936D018A2F8E198F15A8F3DA
:1010E0008DA58F3F19F061E00E94460261E08B2DD3
:1010F0000E944602C5CF61E00E944602D7CFF12C84
:10110000BFCFCF92DF92EF92FF920F931F93CF93B7
:10111000DF9300D000D000D0CDB7DEB77C018E01C8
:101120000F5F1F4F26E048EA60E00E94FD07CB807A
:10113000DC800D811E8169817A81072E000C880B6D
:10114000990B0E949514F7016083718382839383C6
:10115000B601DD0C880B990B0E949514F70164838E
:10116000758386839783B801110F880B990B0E94B2
:101170009514F701608771878287938726960FB64B
:10118000F894DEBF0FBECDBFDF91CF911F910F91BD
:10119000FF90EF90DF90CF900895CF92DF92EF9283
:1011A000FF920F931F93CF93DF9300D000D000D016
:1011B000CDB7DEB77C018E010F5F1F4F26E048EAF6
:1011C00061E00E94FD07CB80DC800D811E8169817A
:1011D0007A81072E000C880B990B0E949514F70159
:1011E0006487758786879787B601DD0C880B990B16
:1011F0000E949514F701608B718B828B938BB801E1
:10120000110F880B990B0E949514F701648B758B55
:10121000868B978B26960FB6F894DEBF0FBECDBF98
:10122000DF91CF911F910F91FF90EF90DF90CF90C2
:101230000895CF92DF92EF92FF920F931F93CF9377
:10124000DF9300D000D000D0CDB7DEB77C018E0197
:101250000F5F1F4F26E048E960E00E94FD07CB804A
:10126000DC800D811E8169817A81072E000C880B3C
:10127000990B0E949514F701608F718F828F938F65
:10128000B601DD0C880B990B0E949514F701648F51
:10129000758F868F978FB801110F880B990B0E945D
:1012A0009514F70160A371A382A393A326960FB6AA
:1012B000F894DEBF0FBECDBFDF91CF911F910F918C
:1012C000FF90EF90DF90CF900895EF92FF920F93F1
:1012D0001F93CF93DF9300D0CDB7DEB77C018E0193
:1012E0000F5F1F4F22E045E960E00E94FD07898102
:1012F0009A81F70195A384A30F900F90DF91CF916E
:101300001F910F91FF90EF90089581E595E00E9465
:10131000810881E595E00E94CD0881E595E00E9475
:10132000190981E595E00C9465090F931F93CF93FC
:10133000DF931F92CDB7DEB78E010F5F1F4F21E005
:1013400040E160E081E595E00E94FD074981477E2C
:1013500060E180E00E94FF0489E29CE5AFE0BCE32D
:101360008093870590938805A0938905B0938A059B
:101370000F90DF91CF911F910F9108950F931F93BD
:10138000CF93DF931F92CDB7DEB78E010F5F1F4F54
:1013900021E041E261E081E595E00E94FD0749819D
:1013A0004F7961E281E00E94FF0489E29CE5AFE0B1
:1013B000BEE38093830590938405A0938505B09345
:1013C00086050F90DF91CF911F910F9108950F9394
:1013D0001F93CF93DF931F92CDB7DEB78E010F5FC0
:1013E0001F4F21E040E260E081E595E00E94FD07AB
:1013F0004981477E60E280E00E94FF0483E29BED2A
:10140000A9E7BDE380937F0590938005A0938105B4
:10141000B09382050F90DF91CF911F910F910895A6
:10142000682F87E30E94C50010925C0480935B04E0
:101430000895FC0101900020E9F73197AF01481BA6
:10144000590BBC0188EA94E00C9410018F929F9292
:10145000AF92BF920F931F93CF93DF93CDB7DEB7B9
:10146000A1970FB6F894DEBF0FBECDBF19A24230D0
:1014700008F44AE08E010F5D1F4F842E912CB12C91
:10148000A12CA50194010E94BC15E62FB901CA0147
:10149000EA30F4F4E05DD801EE938D01232B242B88
:1014A000252B79F790E080E0109719F0CD010E948C
:1014B000190AA1960FB6F894DEBF0FBECDBFDF911B
:1014C000CF911F910F91BF90AF909F908F900895F3
:1014D000E95CE1CF0C94190A4F925F926F927F9270
:1014E0008F929F92AF92BF92CF92DF92EF92FF9234
:1014F0000F931F93CF936B017C01742EAC019B0162
:101500000E94B715882399F080E691E0CF911F9152
:101510000F91FF90EF90DF90CF90BF90AF909F9092
:101520008F907F906F905F904F900C94190A4601B6
:101530005701E894B7F82FEF3FEF4FE75FE7C5019A
:10154000B4010E94B71581110DC02FEF3FEF4FE797
:101550005FE7C501B4010E94ED1318161CF484E680
:1015600091E0D4CF2FEF3FEF4FE75FE4C701B60123
:101570000E94451518161CF488E691E0C7CF2FEF9E
:101580003FEF4FE75FECC701B6010E94ED1387FD07
:10159000F3CF20E030E0A901C701B6010E94ED13AE
:1015A00010E000E087FF0AC06DE288EA94E00E9444
:1015B000B0018C01F7FAF094F7F8F094C0E060E025
:1015C00070E080E09FE37C1641F020E030E040E2F4
:1015D00051E40E94F213CF5FF6CFA70196010E945B
:1015E00081132B013C010E9464144B015C014AE011
:1015F0000E94260A7C01E00EF11ECC23C1F1C50138
:10160000B4010E9493149B01AC01C301B2010E947A
:1016100080134B015C016EE288EA94E00E94B00105
:10162000E80EF91EC15018F120E030E040E251E42C
:10163000C501B4010E944A152B013C010E946414AB
:101640004B01B12CA12C4AE0C501B4010E94260A2D
:10165000E80EF91EC501B4010E9493149B01AC0170
:10166000C301B2010E9480134B015C01DBCFC701B3
:10167000CF911F910F91FF90EF90DF90CF90BF908F
:10168000AF909F908F907F906F905F904F90089554
:10169000CF93DF930E94190AEC018CE691E00E943F
:1016A000190A8C0F9D1FDF91CF910895CF92DF9281
:1016B000EF92FF92CF93DF936C01990FEE08FF0832
:1016C000F7FE1FC06DE288EA94E00E94B001EC01D1
:1016D00066277727CB016C197D098E099F094AE09F
:1016E0000E94260AC80FD91F8CE691E00E94190AB1
:1016F0008C0F9D1FDF91CF91FF90EF90DF90CF90E7
:1017000008954AE0C701B6010E94260AEC01ECCF19
:10171000CF93DF93682F70E090E080E04AE00E9472
:10172000260AEC018CE691E00E94190A8C0F9D1F9D
:10173000DF91CF9108950C9480161F920F920FB6EF
:101740000F9211242F933F934F935F936F937F9347
:101750008F939F93AF93BF93EF93FF9388EA94E0A7
:101760000E948E01FF91EF91BF91AF919F918F9158
:101770007F916F915F914F913F912F910F900FBE8D
:101780000F901F9018951F920F920FB60F92112471
:101790002F938F939F93EF93FF93E091B804F09171
:1017A000B9048081E091BE04F091BF0482FD1BC0AA
:1017B00090818091C1048F5F8F732091C204821742
:1017C00041F0E091C104F0E0E855FB4F958F809324
:1017D000C104FF91EF919F918F912F910F900FBEB8
:1017E0000F901F9018958081F4CF1F920F920FB623
:1017F0000F9211242F933F938F939F93AF93BF9397
:1018000080913F0490914004A0914104B091420422
:101810003091390423E0230F2D3758F50196A11D8F
:10182000B11D2093390480933F0490934004A0930A
:101830004104B093420480913A0490913B04A091FA
:101840003C04B0913D040196A11DB11D80933A0462
:1018500090933B04A0933C04B0933D04BF91AF919F
:101860009F918F913F912F910F900FBE0F901F90DE
:10187000189526E8230F0296A11DB11DD2CF1F9205
:101880000F920FB60F9211242F933F934F935F93B4
:101890006F937F938F939F93AF93BF93EF93FF9338
:1018A0008091B900887F803609F44AC0F0F588320B
:1018B00009F4A7C018F5803109F49BC0B8F4882357
:1018C00009F4F9C0883009F494C0FF91EF91BF91F9
:1018D000AF919F918F917F916F915F914F913F91C8
:1018E0002F910F900FBE0F901F901895883109F41B
:1018F00088C0803251F78093A10414C0803409F469
:101900009DC040F48033B9F38833F9F68093A10485
:1019100085ECB0C0803509F485C0883509F496C0DF
:10192000883499F60E94ED03D0CF883909F48CC031
:1019300038F5883729F050F4883611F0803729F6C9
:1019400083E08093A3041092380457C0883809F4C8
:101950007BC0803919F0803809F0B7CF8091380406
:10196000803208F071C0E091380481E08E0F8093DE
:1019700038048091BB00F0E0E85EFB4F80833DC0FF
:10198000803B39F0E0F4803A09F479C0883A09F0F4
:101990009CCF84E08093A304109217041092160445
:1019A000E0915904F0915A0409958091160481112F
:1019B0000FC081E0809316041092F60309C0803CAA
:1019C00009F4A6CF883C09F4A3CF883B09F07DCF6A
:1019D000E091170481E08E0F80931704F0E0EA5045
:1019E000FC4F80818093BB00909117048091160476
:1019F00029C080919E048093BB0085EC8093BC003D
:101A000064CF9091A00480919F04981758F5E091BD
:101A1000A00481E08E0F8093A004F0E0E358FB4F18
:101A20008081E9CFE091A00481E08E0F8093A00433
:101A30008091BB00F0E0E358FB4F80839091A004BD
:101A400080919F049817C8F285E8D8CFE091A00450
:101A500081E08E0F8093A0048091BB00F0E0E358FA
:101A6000FB4F80838091A20481115CCF81E0809341
:101A70009D0484EA8093BC001092A30426CF85ECD9
:101A80008093BC001092A30480913804803230F41B
:101A9000E0913804F0E0E85EFB4F1082609138047A
:101AA00070E0E0915704F091580488E194E00995C2
:101AB000109238040ACF1092A10434CFEF92FF9213
:101AC0000F931F93CF93DF93CDB7DEB761970FB618
:101AD000F894DEBF0FBECDBFE8EAF4E013821282B5
:101AE00088EE93E0A0E0B0E084839583A683B7837B
:101AF0002AE031E03183208325EC30E035872487EC
:101B000024EC30E03787268720EC30E0318B208BC7
:101B100021EC30E0338B228B22EC30E0358B248BB0
:101B200026EC30E0378B268B118E128E138E148E9E
:101B3000E5E4F5E01382128284839583A683B7835C
:101B40008CE191E09183808381E5E82E85E0F82E99
:101B50000EE211E010939C0500939B051093AD05D8
:101B60000093AC051093BE050093BD051093CF05FF
:101B70000093CE0581E0D70196968C939697989620
:101B8000FC93EE93979781E090E0A0E0B0E0F7013E
:101B900082AF93AFA4AFB5AF82E090E0A0E0B0E039
:101BA00080938F0590939005A0939105B093920533
:101BB00083E090E0A0E0B0E08093930590939405DB
:101BC000A0939505B093960584E090E0A0E0B0E086
:101BD0008093970590939805A0939905B0939A05E3
:101BE0001A830983FD82EC8281E898E09F838E83CB
:101BF0001986188684E595E09B878A871D861C8652
:101C000088EF96E09F878E87198A188ABE016F5FDA
:101C10007F4F8BE995E00E948C001A830983FD8237
:101C2000EC828DEC98E09F838E831986188687ED71
:101C300095E09B878A871D861C8685E397E09F87B2
:101C40008E87198A188ABE016F5F7F4F8CEA95E0F4
:101C50000E948C001A830983FD82EC8289E199E05D
:101C60009F838E83198618868AE496E09B878A87ED
:101C70001D861C8687E797E09F878E87198A188ABA
:101C8000BE016F5F7F4F8DEB95E00E948C001A8341
:101C90000983FD82EC8285E699E09F838E83198615
:101CA000188689EA96E09B878A871D861C868AEBC0
:101CB00097E09F878E87198A188ABE016F5F7F4FD2
:101CC0008EEC95E00E948C0061960FB6F894DEBF12
:101CD0000FBECDBFDF91CF911F910F91FF90EF907D
:101CE0000895CF93DF93CDB7DEB7C059D1090FB6B2
:101CF000F894DEBF0FBECDBF789484B5826084BDFA
:101D000084B5816084BD85B5826085BD85B58160FF
:101D100085BD80916E00816080936E00109281007D
:101D20008091810082608093810080918100816038
:101D300080938100809180008160809380008091F9
:101D4000B10084608093B1008091B0008160809385
:101D5000B00080917A00846080937A0080917A004C
:101D6000826080937A0080917A00816080937A000B
:101D700080917A00806880937A001092C100E0918F
:101D8000B804F091B90482E08083E091B404F0914A
:101D9000B5041082E091B604F091B70480E180832D
:101DA0001092C004E091BC04F091BD0486E08083F1
:101DB000E091BA04F091BB04808180618083E0915E
:101DC000BA04F091BB04808188608083E091BA04FA
:101DD000F091BB04808180688083E091BA04F09127
:101DE000BB0480818F7D80830E9474028CE080938D
:101DF000B8008FE691E00E94480B87E30E94BB0089
:101E00008AE890E00E949D0485E495E00E94A20487
:101E100081E090E00E94100A88E891E00E946A0A3E
:101E200080915B0490915C04891B990B0E94560B76
:101E300085E495E00E942E04182F8FE991E00E941E
:101E4000480B80EB91E00E946A0A812F0E94880B68
:101E500085E495E00E94A20487E30E94BB008FE81E
:101E600090E00E949D0485E495E00E94A20481E038
:101E700090E00E94100A80EC91E00E946A0A809132
:101E80005B0490915C04891B990B0E94560B85E4BE
:101E900095E00E942E04182F88ED91E00E94480BD7
:101EA0008BEE91E00E946A0A812F0E94880B85E4E4
:101EB00095E00E94A2048FEF8DA38EA387E30E947A
:101EC000BB0090E080E00E949D0442E050E0BE0133
:101ED0006B5D7F4F85E495E00E94410485E495E0C9
:101EE0000E94A20487E30E94BB0082E090E00E946F
:101EF0009D0490E080E00E949D0490E080E00E94BC
:101F00009D0485E495E00E94A20487E30E94BB0043
:101F10008CE490E00E949D0485E190E00E949D0485
:101F200085E495E00E94A20487E30E94BB0090E054
:101F300080E00E949D0485E495E00E94A20482E076
:101F400090E00E94100A87EF91E00E946A0A809157
:101F50005B0490915C04891B990B0E94560B909135
:101F60005B0480915C04981739F085E495E00E9449
:101F70002E040E94880BF3CF87E30E94BB0086E803
:101F800090E00E949D0483E090E00E949D0485E41F
:101F900095E00E94A2046CE271E080E090E00E9473
:101FA000FC0219821A8287E30E94BB0084E990E058
:101FB0000E949D0485E495E00E94A20482E090E0E6
:101FC0000E94100A8E010F5F1F4FF02EE12E90919C
:101FD0005B0480915C04981759F085E495E00E94B9
:101FE0002E04D82E0E94880BF801D1928F01EFCFDA
:101FF00085E495E00E94A20487E30E94BB008EE77F
:1020000090E00E949D0442E050E06F2D7E2D85E41B
:1020100095E00E94410485E495E00E94A20487E3D4
:102020000E94BB0086E890E00E949D0482E090E060
:102030000E949D0485E495E00E94A2046CE271E098
:1020400080E090E00E94FC02D12C87E30E94BB005C
:1020500088E890E00E949D0485E495E00E94A20437
:1020600081E090E00E94100A85E495E00E942E0431
:102070008C018FE092E00E946A0AC8010E94560B10
:1020800001301105F9F487E30E94BB0089E890E074
:102090000E949D0485E495E00E94A20481E090E006
:1020A0000E94100A85E495E00E942E048C018AE2C9
:1020B00092E00E946A0AC8010E94560B85E495E0EE
:1020C0000E94A20485E495E00E94A204FFEFDF12C3
:1020D0002AC284E492E00E94480B87E30E94BB007E
:1020E00086E890E00E949D048FEF90E00E949D049E
:1020F00085E495E00E94A2046CE271E080E090E04B
:102100000E94FC02D12CCC24C39487E30E94BB0024
:1021100088E890E00E949D0485E495E00E94A20476
:1021200081E090E00E94100A85E495E00E942E0470
:102130008C0182E692E00E946A0AC8010E94560B56
:1021400001301105F9F487E30E94BB0089E890E0B3
:102150000E949D0485E495E00E94A20481E090E045
:102160000E94100A85E495E00E942E048C018DE700
:1021700092E00E946A0AC8010E94560B85E495E02D
:102180000E94A20485E495E00E94A2048FEFD81279
:10219000CFC187E992E00E94480B1092550464EF8A
:1021A00071E080E090E00E94FC0280915504882359
:1021B00009F4C5C185EB92E00E94480B8AEC92E0DD
:1021C0000E94480B86ED92E00E94480B64EF71E09C
:1021D00080E090E00E94FC0288E393E00E94480BBC
:1021E00080917705882309F4ADC10E94740245E00F
:1021F00062E280E00E94FF044CE061E281E00E9424
:10220000FF046AE070E080E090E00E94FC020F2D85
:102210001E2D21E04FE060E081E595E00E94FD0782
:102220008981883609F001C221E04FE061E081E553
:1022300095E00E94FD0789818D3309F0F6C140ECDD
:1022400060E180E00E94FF0448E36FE180E00E94CB
:10225000FF0440EC60E280E00E94FF0440E062E2A4
:1022600081E00E94FF040E94E7090E94BE090E94CB
:10227000950985EB92E00E94480B8DE493E00E9463
:10228000480B86ED92E00E94480B81E08093560453
:102290000E94E7090E94BE090E94950968EE73E05A
:1022A00080E090E00E94FC0293E5C92E94E0D92ED4
:1022B00000E010E080915604882309F40DC10E94CB
:1022C00085090E9485098FB7F89480903F0490900B
:1022D0004004A0904104B09042048FBFA501940136
:1022E000BE0163597F4F81E595E00E945405A50129
:1022F0009401BE01675B7F4F81E595E00E94D705A1
:10230000A5019401BE016B5D7F4F81E595E00E94C0
:102310004A06A50194016F2D7E2D81E595E00E946E
:10232000A9068EE993E00E946A0A20E030E0A90144
:10233000CF57DF4F688179818A819B81C158D04016
:102340000E94451587FD78C181EB93E00E946A0ADF
:10235000CF57DF4F88809980AA80BB80C158D0407A
:1023600020E030E040E251E4C501B4010E94ED13E9
:1023700087FF0EC020E030E040E251ECC501B4011F
:102380000E944515181624F48EEA91E00E946A0A0C
:10239000CF57DF4F88809980AA80BB80C158D0403A
:1023A00020E030E0A901C501B4010E9445151816CE
:1023B00024F0B7FAB094B7F8B09442E0C501B40184
:1023C0000E946C0A85EB93E00E946A0A20E030E0EC
:1023D000A901CB57DF4F688179818A819B81C558DC
:1023E000D0400E94451587FD04C081EB93E00E9418
:1023F0006A0A20E030E040E251E4CB57DF4F6881C9
:1024000079818A819B81C558D0400E94ED1387FF56
:1024100004C08EEA91E00E946A0ACB57DF4F8880A1
:102420009980AA80BB80C558D04020E030E0A90147
:10243000C501B4010E944515181624F0B7FAB094EE
:10244000B7F8B09442E0C501B4010E946C0A8AEB6F
:1024500093E00E946A0A20E030E0A901C757DF4FED
:10246000688179818A819B81C958D0400E94451535
:1024700087FD04C081EB93E00E946A0A20E030E00F
:1024800040E251E4C757DF4F688179818A819B819F
:10249000C958D0400E94ED1387FF04C08EEA91E036
:1024A0000E946A0AC757DF4F88809980AA80BB8044
:1024B000C958D04020E030E0A901C501B4010E9414
:1024C0004515181624F0B7FAB094B7F8B09442E066
:1024D000C501B4010E946C0A90905504992009F43A
:1024E000F9C019821A8287E30E94BB008AEA90E051
:1024F0000E949D0485E495E00E94A20482E090E0A1
:102500000E94100AAF2CBE2C90915B0480915C0459
:10251000981709F494C085E495E00E942E04F50113
:1025200081935F01F1CFD394012B09F08ECDD5CDEE
:10253000C0925504D394012B09F0E7CD30CE8BEE39
:1025400092E042CE80917E0561E08F3F09F047C066
:1025500080917B050E94A60261E080917A050E942D
:10256000A60261E080917B050E94460261E08091B5
:102570007A050E9446021FB7F89480913E048111AB
:1025800027C0E8EBF0E08491E4EAF0E09491E82FD2
:10259000F0E0EE0FFF1FE057FF4FA591B491EC91D3
:1025A000E92321F461E08AE00E94460261E08AE0CA
:1025B0000E94A6028CB580618CBD8CB580648CBDF8
:1025C00061E08DE00E94A60261E08BE00E94A6021D
:1025D00080913E048F5F80933E041FBF08CE0E940F
:1025E000A60261E080917C050E94A60260E08091D5
:1025F0007D050E94A60261E080917B050E94A602F3
:1026000061E080917A050E94A60261E080917B05DD
:102610000E94460261E080917A050E94460261E0D4
:1026200080917E050E944602E2CD80E693E00E9402
:10263000480B1092560438CE83EB93E087CE85E4A6
:1026400095E00E94A204898190915304981711F19A
:10265000809353048A81909154048917E9F0809300
:102660005404A3E4B4E020E0E22FE695E695E69575
:10267000F0E0ED5AFB4F808190E0322F377002C0BE
:10268000959587953A95E2F781708D932F5F20316C
:1026900059F704C0912CDECF9110E3CF8FEB93E07C
:1026A0000E946A0A83E4A82E84E0B82EF5016191A5
:1026B0005F0170E090E080E04AE00E94260A82E438
:1026C00092E00E946A0ACA14DB0481F783ED93E06A
:1026D0000E946A0A8CE691E00E94190A68EC70E098
:1026E00080E090E00E94FC020115110509F4E2CDA2
:1026F0000E947A01882309F4DDCD0E940000DACD22
:102700005058BB27AA270E9498130C940B150E94BF
:10271000FD1438F00E94041520F039F49F3F19F49D
:1027200026F40C94FA140EF4E095E7FB0C94F414E0
:10273000E92F0E941C1558F3BA1762077307840724
:10274000950720F079F4A6F50C943E150EF4E0956B
:102750000B2EBA2FA02D0B01B90190010C01CA015B
:10276000A0011124FF27591B99F0593F50F4503E06
:1027700068F11A16F040A22F232F342F4427585FF8
:10278000F3CF469537952795A795F0405395C9F710
:102790007EF41F16BA0B620B730B840BBAF09150C8
:1027A000A1F0FF0FBB1F661F771F881FC2F70EC067
:1027B000BA0F621F731F841F48F48795779567953A
:1027C000B795F7959E3F08F0B0CF9395880F08F026
:1027D0009927EE0F9795879508950E94D01408F4D5
:1027E00081E008950E9406140C940B150E940415B4
:1027F00058F00E94FD1440F029F45F3F29F00C943A
:10280000F41451110C943F150C94FA140E941C15E9
:1028100068F39923B1F3552391F3951B550BBB270F
:10282000AA2762177307840738F09F5F5F4F220F54
:10283000331F441FAA1FA9F335D00E2E3AF0E0E84B
:1028400032D091505040E695001CCAF72BD0FE2F95
:1028500029D0660F771F881FBB1F26173707480729
:10286000AB07B0E809F0BB0B802DBF01FF279358E1
:102870005F4F3AF09E3F510578F00C94F4140C949D
:102880003F155F3FE4F3983ED4F3869577956795BF
:10289000B795F7959F5FC9F7880F911D9695879516
:1028A00097F90895E1E0660F771F881FBB1F621735
:1028B00073078407BA0720F0621B730B840BBA0BF3
:1028C000EE1F88F7E09508950E94241588F09F5721
:1028D00098F0B92F9927B751B0F0E1F0660F771F44
:1028E000881F991F1AF0BA95C9F714C0B13091F03A
:1028F0000E943E15B1E008950C943E15672F782F85
:102900008827B85F39F0B93FCCF3869577956795FE
:10291000B395D9F73EF490958095709561957F4F6A
:102920008F4F9F4F0895E89409C097FB3EF4909510
:102930008095709561957F4F8F4F9F4F9923A9F098
:10294000F92F96E9BB279395F69587957795679527
:10295000B795F111F8CFFAF4BB0F11F460FF1BC06B
:102960006F5F7F4F8F4F9F4F16C0882311F096E9FE
:1029700011C0772321F09EE8872F762F05C06623AC
:1029800071F096E8862F70E060E02AF09A95660F65
:10299000771F881FDAF7880F9695879597F908951E
:1029A000990F0008550FAA0BE0E8FEEF1616170660
:1029B000E807F907C0F012161306E407F50798F0C8
:1029C000621B730B840B950B39F40A2661F0232BE1
:1029D000242B252B21F408950A2609F4A140A6955D
:1029E0008FEF811D811D089597F99F6780E870E042
:1029F00060E008959FEF80EC089500240A94161675
:102A0000170618060906089500240A9412161306DC
:102A1000140605060895092E0394000C11F488236A
:102A200052F0BB0F40F4BF2B11F460FF04C06F5F86
:102A30007F4F8F4F9F4F089557FD9058440F551F5C
:102A400059F05F3F71F04795880F97FB991F61F030
:102A50009F3F79F087950895121613061406551FA7
:102A6000F2CF4695F1DF08C0161617061806991F13
:102A7000F1CF86957105610508940895E894BB2708
:102A800066277727CB0197F908950E94D01408F4A0
:102A90008FEF08950E945D150C940B150E94FD1494
:102AA00038F00E94041520F0952311F00C94F414D2
:102AB0000C94FA1411240C943F150E941C1570F309
:102AC000959FC1F3950F50E0551F629FF001729FD3
:102AD000BB27F00DB11D639FAA27F00DB11DAA1FE2
:102AE000649F6627B00DA11D661F829F2227B00D2F
:102AF000A11D621F739FB00DA11D621F839FA00DBA
:102B0000611D221F749F3327A00D611D231F849F09
:102B1000600D211D822F762F6A2F11249F57504060
:102B20009AF0F1F088234AF0EE0FFF1FBB1F661FDB
:102B3000771F881F91505040A9F79E3F510580F0A4
:102B40000C94F4140C943F155F3FE4F3983ED4F3D7
:102B5000869577956795B795F795E7959F5FC1F748
:102B6000FE2B880F911D9695879597F908950E94E1
:102B7000D014880B990B0895A1E21A2EAA1BBB1B37
:102B8000FD010DC0AA1FBB1FEE1FFF1FA217B30739
:102B9000E407F50720F0A21BB30BE40BF50B661F4F
:102BA000771F881F991F1A9469F760957095809513
:102BB00090959B01AC01BD01CF010895EE0FFF1F61
:102BC0000590F491E02D09940F931F93CF93DF9319
:102BD0008230910510F482E090E0E091E105F091FF
:102BE000E20530E020E0B0E0A0E0309799F4211554
:102BF000310509F44AC0281B390B24303105D8F5BA
:102C00008A819B816115710589F1FB019383828320
:102C1000FE0111C04081518102811381481759077B
:102C2000E0F04817590799F4109761F012960C9349
:102C3000129713961C933296CF01DF91CF911F917B
:102C40000F9108950093E1051093E205F4CF21154B
:102C5000310551F04217530738F0A901DB019A0101
:102C6000BD01DF01F801C1CFEF01F9CF9093E2057B
:102C70008093E105CDCFFE01E20FF31F8193919385
:102C80002250310939832883D7CF2091DF05309135
:102C9000E005232B41F42091020130910301309390
:102CA000E0052093DF0520910001309101012115FD
:102CB000310541F42DB73EB7409104015091050113
:102CC000241B350BE091DF05F091E005E217F307D7
:102CD000A0F42E1B3F0B2817390778F0AC014E5F8C
:102CE0005F4F2417350748F04E0F5F1F5093E005E4
:102CF0004093DF05819391939FCFF0E0E0E09CCF7C
:102D0000CF93DF930097E9F0FC0132971382128290
:102D1000A091E105B091E205ED0130E020E01097CF
:102D2000A1F420813181820F931F2091DF05309122
:102D3000E0052817390709F061C0F093E005E0933A
:102D4000DF05DF91CF910895EA01CE17DF07E8F59F
:102D50004A815B819E0141155105B1F7E901FB8371
:102D6000EA8349915991C40FD51FEC17FD0761F40F
:102D7000808191810296840F951FE9019983888350
:102D8000828193819B838A83F0E0E0E012968D91AB
:102D90009C9113970097B9F52D913C911197CD0116
:102DA0000296820F931F2091DF053091E0052817CE
:102DB000390739F6309751F51092E2051092E10586
:102DC000B093E005A093DF05BCCFD383C2834081DD
:102DD0005181840F951FC817D90761F44E5F5F4F6B
:102DE00088819981480F591F518340838A819B8133
:102DF000938382832115310509F0B0CFF093E2056A
:102E0000E093E1059ECFFD01DC01C0CF1382128269
:102E1000D7CFFB01DC014150504048F001900D92AA
:102E20000020C9F701C01D9241505040E0F70895BD
:042E3000F894FFCF44
:102E34000000E305800000000000B00110013D0126
:102E4400FD016E014C016001000000006E044104AC
:102E540051051E0409012E041F04000000002E0366
:102E64009B0BEB03A8038F034C534D394453315F41
:102E740041004C534D394453315F4D004C534D394F
:102E84004453315F47004C534D394453315F540030
:102E94006E616E00696E66006F7666000D0A000A48
:102EA4000A436865636B696E672043617073656E7E
:102EB40073652E2E2E2E0A00576972652E61766177
:102EC400696C61626C652046697273743A200054BF
:102ED4006869732073686F756C64206265203000C4
:102EE40053595354454D5F5354415455533A20005C
:102EF400576972652E617661696C61626C652053F5
:102F040045434F4E443A2000546869732073686FF8
:102F1400756C64206265203135340046414D494C5E
:102F2400595F49443A2000576972652E6176616998
:102F34006C61626C6520464F555254483A200072C9
:102F44006573756C74204354524C5F434D445F5316
:102F5400544154555320313A2000726573756C7492
:102F6400204354524C5F434D445F4552524F5220CC
:102F7400313A200043617073656E736520636F6E30
:102F84006E656374696F6E206572726F722028318A
:102F94002900726573756C74204354524C5F434D21
:102FA400445F53544154555320323A2000726573A0
:102FB400756C74204354524C5F434D445F455252E8
:102FC4004F5220323A200043617073656E7365205E
:102FD400636F6E6E656374696F6E206572726F7273
:102FE40020283229000A2A2A2A2A2A2A2A2A2A2A8C
:102FF4002A2A2A2A2A2A2A2A2A0043617073656EF9
:103004007365204F4B002A2A2A2A2A2A2A2A2A2A86
:103014002A2A2A2A2A2A2A2A2A0A000A0A4F6F70E6
:1030240073202E2E2E20756E61626C6520746F20C5
:10303400696E697469616C697A652049444D494CCB
:1030440027732043617073656E73652E2043686532
:10305400636B20796F757220776972696E672F626E
:103064006F617264210A0A000A636865636B696EA2
:103074006720494D552E2E2E2E2E0A0A00466F75B6
:103084006E64204C534D394453312039444F46002B
:103094004F6F7073202E2E2E20756E61626C65202A
:1030A400746F20696E697469616C697A65207468EB
:1030B40065204C534D394453312E20436865636B6E
:1030C40020796F757220776972696E672100416398
:1030D40063656C2028206D2F735E32293A20583D99
:1030E400002B002D002C20593D002C205A3D00209F
:1030F4007C20546F7563682073656E736F723A2019
:063104005B20005D0000ED
:00000001FF
